:100000000C945D000C9485000C9485000C94850084
:100010000C9485000C9485000C9485000C9485004C
:100020000C9485000C9485000C9485000C9485003C
:100030000C9485000C9485000C9485000C9485002C
:100040000C9440040C9485000C94B0040C948A0425
:100050000C9485000C9485000C9485000C9485000C
:100060000C9485000C9485000000000024002700FB
:100070002A0000000000250028002B0004040404CE
:100080000404040402020202020203030303030342
:10009000010204081020408001020408102001021F
:1000A00004081020000000080002010000030407FB
:1000B0000000000000000000540711241FBECFEF15
:1000C000D8E0DEBFCDBF11E0A0E0B1E0E2E4F4E1B2
:1000D00002C005900D92A236B107D9F722E0A2E640
:1000E000B1E001C01D92A432B207E1F710E0CDE506
:1000F000D0E004C02197FE010E94D807CC35D1077B
:10010000C9F70E94E2040C941F0A0C94000090E0CE
:10011000FC01EC55FF4F2491FC01E057FF4F349157
:10012000FC01E458FF4FE491EE2309F43CC0222384
:1001300039F1233091F038F42130A9F0223001F563
:1001400084B58F7D12C0273091F02830A1F0243083
:10015000B9F4809180008F7D03C0809180008F77FB
:10016000809380000DC084B58F7784BD09C08091D5
:10017000B0008F7703C08091B0008F7D8093B00076
:10018000F0E0EE0FFF1FEE58FF4FA591B4919FB71F
:10019000F894611104C08C913095382302C0EC9121
:1001A0003E2B3C939FBF0895CF93DF9390E0FC01DB
:1001B000E057FF4F2491FC01E458FF4F84918823BE
:1001C00061F190E0880F991FFC01E859FF4FC5913C
:1001D000D491FC01EE58FF4FA591B491611109C073
:1001E0009FB7F8948881209582238883EC912E23F1
:1001F0000BC0623061F49FB7F8948881322F30953C
:1002000083238883EC912E2B2C939FBF06C08FB73E
:10021000F894E8812E2B28838FBFDF91CF9108952A
:100220001F93CF93DF93182FEB0161E00E94D4005E
:10023000209711F460E004C0CF3FD10539F461E0AC
:10024000812FDF91CF911F910C948700E12FF0E077
:10025000EC55FF4FE491E330F9F048F4E130B9F0A8
:10026000E230A1F584B5806284BDC8BD34C0E730FA
:10027000E9F0E83019F1E43049F5809180008062BE
:1002800080938000D0938B00C0938A0024C084B5F3
:10029000806884BDC7BD1FC0809180008068809346
:1002A0008000D0938900C093880015C08091B00071
:1002B00080688093B000C093B3000DC08091B000FF
:1002C00080628093B000C093B40005C0C038D105EF
:1002D0000CF0B5CFAFCFDF91CF911F9108958E3045
:1002E00008F08E508770806480937C0080917A0043
:1002F000806480937A0080917A0086FDFCCF8091A3
:1003000078002091790090E0922B08953FB7F894FF
:100310008091830190918401A0918501B091860123
:1003200026B5A89B05C02F3F19F00196A11DB11D50
:100330003FBFBA2FA92F982F8827820F911DA11D8B
:10034000B11DBC01CD0142E0660F771F881F991FC8
:100350004A95D1F70895CF92DF92EF92FF920F93D3
:100360001F93CF93DF936C017A018B01C0E0D0E043
:10037000CE15DF0581F0D8016D918D01D601ED918B
:10038000FC910190F081E02DC6010995892B11F0B7
:100390002196EECF7E01C701DF91CF911F910F9182
:1003A000FF90EF90DF90CF900895089580E090E067
:1003B0000895FC01538D448D252F30E0842F90E06B
:1003C000821B930B541710F0CF9608950197089550
:1003D000FC01918D828D981761F0828DDF01A80F4D
:1003E000B11D5D968C91928D9F5F9F73928F90E06F
:1003F00008958FEF9FEF0895FC01918D828D9817DE
:1004000031F0828DE80FF11D858D90E008958FEF1A
:100410009FEF0895FC01918D228D892F90E0805CE3
:100420009F4F821B91098F739927089587E891E068
:100430000E940A0221E0892B09F420E0822F08950E
:10044000FC01848DDF01A80FB11DA35ABF4F2C9171
:10045000848D90E001968F739927848FA689B78940
:100460002C93A089B1898C91837080648C93938D37
:10047000848D981306C00288F389E02D80818F7DDA
:1004800080830895EF92FF920F931F93CF93DF9392
:10049000EC0181E0888F9B8D8C8D981305C0E889D5
:1004A000F989808185FD26C0F62E0B8D10E00F5F47
:1004B0001F4F0F731127E02E8C8DE8120CC00FB662
:1004C00007FCFACFE889F989808185FFF5CFCE0155
:1004D0000E942002F1CF8B8DFE01E80FF11DE35A3F
:1004E000FF4FF0829FB7F8940B8FEA89FB898081D8
:1004F00080620AC09FB7F894EE89FF896083E8891B
:10050000F98980818370806480839FBF81E090E05F
:10051000DF91CF911F910F91FF90EF900895CF93AE
:10052000DF93EC01888D8823C9F0EA89FB898081FB
:1005300085FD05C0A889B9898C9186FD0FC00FB6CD
:1005400007FCF5CF808185FFF2CFA889B9898C910E
:1005500085FFEDCFCE010E942002E7CFDF91CF9142
:10056000089580E090E0892B29F00E941602811105
:100570000C940000089582E10E946F0120EF30E0AA
:10058000DC010E94D10720E034E040E050E00E940E
:100590008107B9018AE00C94100182E10E946F0189
:1005A0002FEF30E0DC010E94D10720E034E040E092
:1005B00050E00E948107B9018AE00C941001009775
:1005C00069F0FC0101900020E9F73197AF01481B69
:1005D000590BBC0187E891E00C94AB0180E090E0FE
:1005E0000895CF93DF930E94DF02EC0184E191E054
:1005F0000E94DF028C0F9D1FDF91CF9108958F9293
:100600009F92AF92BF920F931F93CF93DF93CDB77B
:10061000DEB7A1970FB6F894DEBF0FBECDBF19A20B
:10062000423008F44AE08E010F5D1F4F842E912C5A
:10063000A12CB12CA50194010E94A007E62FB901BD
:10064000CA0101501109EA3014F4E05D01C0E95C0F
:10065000D801EC93232B242B252B61F7C8010E9492
:10066000DF02A1960FB6F894DEBF0FBECDBFDF91BB
:10067000CF911F910F91BF90AF909F908F90089551
:10068000CF92DF92EF92FF92CF93DF9397FF1BC041
:100690006B017C016DE287E891E00E944202EC016F
:1006A00066277727CB016C197D098E099F094AE0DF
:1006B0000E94FF028C0F9D1FDF91CF91FF90EF9062
:1006C000DF90CF9008954AE0DF91CF91FF90EF90B7
:1006D000DF90CF900C94FF028F929F92AF92BF92C7
:1006E000CF92DF92EF92FF920F931F93CF93DF93FE
:1006F0006B017C01142F9B01AC010E94150A882319
:1007000019F087E191E027C046015701E894B7F856
:100710002FEF3FEF4FE75FE7C501B4010E94150AD5
:1007200081110DC02FEF3FEF4FE75FE7C501B40127
:100730000E944B0818161CF48BE191E00CC02FEFBF
:100740003FEF4FE75FE4C701B6010E94A309181607
:1007500084F48FE191E0DF91CF911F910F91FF9091
:10076000EF90DF90CF90BF90AF909F908F900C94C0
:10077000DF022FEF3FEF4FE75FECC701B6010E94AA
:100780004B0887FDE6CF20E030E0A901C701B601A4
:100790000E944B0887FF0BC06DE287E891E00E9442
:1007A0004202EC01F7FAF094F7F8F09402C0C0E0CE
:1007B000D0E000E060E070E080E09FE3101741F0DF
:1007C00020E030E040E251E40E9450080F5FF6CF95
:1007D000A70196010E94DF076B017C010E94C208FD
:1007E0004B015C014AE00E94FF02C80FD91F112390
:1007F000B9F1C501B4010E94F1089B01AC01C70128
:10080000B6010E94DE076B017C016EE287E891E091
:100810000E944202C80FD91F20E030E040E251E4BC
:10082000C701B6010E94A8094B015C010E94C208E1
:100830006B01E12CF12C4AE0C701B6010E94FF02D6
:10084000C80FD91FC701B6010E94F1089B01AC0176
:10085000C501B4010E94DE076B017C011150E1F675
:10086000CE01DF91CF911F910F91FF90EF90DF901C
:10087000CF90BF90AF909F908F9008950E941A0ADA
:100880001F920F920FB60F9211242F933F938F93C5
:100890009F93AF93BF9380917F0190918001A0912E
:1008A0008101B091820130917E0123E0230F2D3729
:1008B00020F40196A11DB11D05C026E8230F029664
:1008C000A11DB11D20937E0180937F019093800133
:1008D000A0938101B0938201809183019091840162
:1008E000A0918501B09186010196A11DB11D809353
:1008F000830190938401A0938501B0938601BF91F9
:10090000AF919F918F913F912F910F900FBE0F90BC
:100910001F9018951F920F920FB60F9211242F93CC
:100920003F934F935F936F937F938F939F93AF9377
:10093000BF93EF93FF9387E891E00E942002FF911D
:10094000EF91BF91AF919F918F917F916F915F9147
:100950004F913F912F910F900FBE0F901F901895C0
:100960001F920F920FB60F9211242F938F939F9384
:10097000EF93FF93E0919701F09198018081E091CE
:100980009D01F0919E0182FD12C090818091A00195
:100990008F5F8F732091A101821751F0E091A00128
:1009A000F0E0E957FE4F958F8093A00101C0808150
:1009B000FF91EF919F918F912F910F900FBE0F900C
:1009C0001F901895789484B5826084BD84B5816049
:1009D00084BD85B5826085BD85B5816085BD80910A
:1009E0006E00816080936E00109281008091810082
:1009F000826080938100809181008160809381007A
:100A0000809180008160809380008091B10084603B
:100A10008093B1008091B00081608093B00080919C
:100A20007A00846080937A0080917A00826080935B
:100A30007A0080917A00816080937A0080917A00B8
:100A4000806880937A001092C100E0919701F09144
:100A5000980182E08083E0919301F09194011082EB
:100A6000E0919501F09196018FEC808310929F01A7
:100A7000E0919B01F0919C0186E08083E0919901D7
:100A8000F0919A01808180618083E0919901F091D9
:100A90009A01808188608083E0919901F0919A01A8
:100AA000808180688083E0919901F0919A01808132
:100AB0008F7D808360E082E10E94D40060E08EE060
:100AC0000E94D40060E08FE00E94D40060E084E1E6
:100AD0000E94D40060E080E10E94D40060E081E1E7
:100AE0000E94D40061E082E00E94D40061E083E0D3
:100AF0000E94D40061E084E00E94D40061E085E0BF
:100B00000E94D40061E086E00E94D40061E087E0AA
:100B10000E94D40061E089E00E94D40061E08AE094
:100B20000E94D40060E082E00E94870060E083E0E1
:100B30000E94870060E084E00E94870060E085E01A
:100B40000E94870060E086E00E94870060E087E006
:100B50000E94870060E089E00E94870060E08AE0F0
:100B60000E9487002FB7F89480917F0190918001B7
:100B7000A0918101B09182012FBF80937A0190935F
:100B80007B01A0937C01B0937D018FB7F8944091D5
:100B90007F015091800160918101709182018FBF2E
:100BA000812C84E0982EA12CB12C93E0292E312C9D
:100BB00020EC422E21EE522E24EE622E712CC1E04A
:100BC000D0E002E010E02FB7F89480917F0190917F
:100BD0008001A0918101B09182012FBF40917A01E3
:100BE00050917B0160917C0170917D01841B950B7C
:100BF000A60BB70B883E9340A105B10508F428C1A8
:100C00006091780170917901072E000C880B990B87
:100C10000E94400384E191E00E94DF028091000184
:100C20009091010182309105D9F08330910519F13D
:100C3000019709F042C00E9486016093620170939F
:100C40006301809364019093650180E10E946F01CC
:100C5000833C914094F110930101009300012DC059
:100C600080E10E946F01823C91403CF5309201018D
:100C70002092000122C080E10E946F01833C9140DC
:100C8000E4F00E948601C0906201D0906301E09080
:100C90006401F09065019B01AC012C193D094E09DE
:100CA0005F09C301B2010E94A0073093670120933E
:100CB0006601D0930101C093000182E10E946F019F
:100CC00024E630E0DC010E94D107A50194010E94D6
:100CD000810730937101209370018EE00E946F01B3
:100CE000BC01990F880B990B0E94F30820E030ECAF
:100CF0004FE754E40E94500820E030E040E251E425
:100D00000E94A80924E13EEA4FE950E40E94DE0770
:100D100026E636E646E350E40E94A8096B017C0112
:100D200060936C0170936D0180936E0190936F01DD
:100D30008FE00E946F01BC01990F880B990B0E94F4
:100D4000F3082DE032E348EC5CE30E94A8096093CD
:100D50007201709373018093740190937501A701E0
:100D600096010E94A80960936801709369018093BD
:100D70006A0190936B0183E291E00E94DF0260912F
:100D8000720170917301809174019091750142E03C
:100D90000E946C038DE291E00E94F10280E391E0F9
:100DA0000E94DF026091700170917101072E000CAA
:100DB000880B990B0E94400384E191E00E94DF02BE
:100DC00084E491E00E94DF0260916C0170916D01FA
:100DD00080916E0190916F0142E00E946C038EE45D
:100DE00091E00E94F10281E591E00E94DF026091B2
:100DF00068017091690180916A0190916B0142E0F4
:100E00000E946C0389E591E00E94F1026091660105
:100E100070916701072E000C880B990B0E9440030C
:100E20008CE591E00E94F10280917A0190917B0122
:100E3000A0917C01B0917D0188519C4FAF4FBF4F75
:100E400080937A0190937B01A0937C01B0937D0104
:100E500081E10E946F0190937901809378018B3F2B
:100E600091052CF4109277011092760104C0D09372
:100E70007701C09376018091760190917701009778
:100E800041F0019771F40E94CD020E94BB0261E023
:100E900005C00E94CD020E94BB0260E082E00E9479
:100EA00087000E94B1028FCEE7E8F1E01382128240
:100EB00088EE93E0A0E0B0E084839583A683B783B7
:100EC00086E091E09183808385EC90E0958784872C
:100ED00084EC90E09787868780EC90E0918B808B04
:100EE00081EC90E0938B828B82EC90E0958B848BED
:100EF00086EC90E0978B868B118E128E138E148E5B
:100F00000895052E97FB1EF400940E94980757FD44
:100F100007D00E94A00707FC03D04EF40C9498075A
:100F200050954095309521953F4F4F4F5F4F089515
:100F300090958095709561957F4F8F4F9F4F089545
:100F4000A1E21A2EAA1BBB1BFD010DC0AA1FBB1FCD
:100F5000EE1FFF1FA217B307E407F50720F0A21B3F
:100F6000B30BE40BF50B661F771F881F991F1A94AC
:100F700069F760957095809590959B01AC01BD01D6
:100F8000CF010895A29FB001B39FC001A39F700D30
:100F9000811D1124911DB29F700D811D1124911D81
:100FA00008950E94C207B7FF0895821B930B08950E
:100FB000EE0FFF1F0590F491E02D09945058BB27C8
:100FC000AA270E94F6070C9469090E945B0938F071
:100FD0000E94620920F039F49F3F19F426F40C9422
:100FE00058090EF4E095E7FB0C945209E92F0E9492
:100FF0007A0958F3BA17620773078407950720F038
:1010000079F4A6F50C949C090EF4E0950B2EBA2FFA
:10101000A02D0B01B90190010C01CA01A0011124FE
:10102000FF27591B99F0593F50F4503E68F11A16AA
:10103000F040A22F232F342F4427585FF3CF46953B
:1010400037952795A795F0405395C9F77EF41F165D
:10105000BA0B620B730B840BBAF09150A1F0FF0F27
:10106000BB1F661F771F881FC2F70EC0BA0F621F13
:10107000731F841F48F4879577956795B795F79503
:101080009E3F08F0B0CF9395880F08F09927EE0F98
:101090009795879508950E942E0908F481E0089598
:1010A0000E9464080C9469090E94620958F00E9429
:1010B0005B0940F029F45F3F29F00C94520951116B
:1010C0000C949D090C9458090E947A0968F399239D
:1010D000B1F3552391F3951B550BBB27AA27621734
:1010E0007307840738F09F5F5F4F220F331F441F41
:1010F000AA1FA9F335D00E2E3AF0E0E832D0915075
:101100005040E695001CCAF72BD0FE2F29D0660F61
:10111000771F881FBB1F261737074807AB07B0E8A4
:1011200009F0BB0B802DBF01FF2793585F4F3AF0AA
:101130009E3F510578F00C9452090C949D095F3F35
:10114000E4F3983ED4F3869577956795B795F79530
:101150009F5FC9F7880F911D9695879597F9089518
:10116000E1E0660F771F881FBB1F621773078407B4
:10117000BA0720F0621B730B840BBA0BEE1F88F7C3
:10118000E09508950E94820988F09F5798F0B92F42
:101190009927B751B0F0E1F0660F771F881F991FAC
:1011A0001AF0BA95C9F714C0B13091F00E949C09A9
:1011B000B1E008950C949C09672F782F8827B85FB9
:1011C00039F0B93FCCF3869577956795B395D9F704
:1011D0003EF490958095709561957F4F8F4F9F4F0E
:1011E0000895E89409C097FB3EF49095809570951A
:1011F00061957F4F8F4F9F4F9923A9F0F92F96E963
:10120000BB279395F695879577956795B795F111D7
:10121000F8CFFAF4BB0F11F460FF1BC06F5F7F4F74
:101220008F4F9F4F16C0882311F096E911C0772386
:1012300021F09EE8872F762F05C0662371F096E88F
:10124000862F70E060E02AF09A95660F771F881F5E
:10125000DAF7880F9695879597F90895990F000802
:10126000550FAA0BE0E8FEEF16161706E807F90778
:10127000C0F012161306E407F50798F0621B730B13
:10128000840B950B39F40A2661F0232B242B252B94
:1012900021F408950A2609F4A140A6958FEF811D37
:1012A000811D089597F99F6780E870E060E00895D8
:1012B0009FEF80EC089500240A941616170618066E
:1012C0000906089500240A9412161306140605064A
:1012D0000895092E0394000C11F4882352F0BB0FDB
:1012E00040F4BF2B11F460FF04C06F5F7F4F8F4F3E
:1012F0009F4F089557FD9058440F551F59F05F3F79
:1013000071F04795880F97FB991F61F09F3F79F027
:1013100087950895121613061406551FF2CF4695A9
:10132000F1DF08C0161617061806991FF1CF86952B
:101330007105610508940895E894BB27662777270F
:10134000CB0197F908950E942E0908F48FEF0895B4
:101350000E94BB090C9469090E945B0938F00E9445
:10136000620920F0952311F00C9452090C9458094D
:1013700011240C949D090E947A0970F3959FC1F382
:10138000950F50E0551F629FF001729FBB27F00D33
:10139000B11D639FAA27F00DB11DAA1F649F662788
:1013A000B00DA11D661F829F2227B00DA11D621FD7
:1013B000739FB00DA11D621F839FA00D611D221F91
:1013C000749F3327A00D611D231F849F600D211D75
:1013D000822F762F6A2F11249F5750409AF0F1F0F8
:1013E00088234AF0EE0FFF1FBB1F661F771F881F61
:1013F00091505040A9F79E3F510580F00C9452093E
:101400000C949D095F3FE4F3983ED4F3869577955D
:101410006795B795F795E7959F5FC1F7FE2B880F06
:10142000911D9695879597F908950E942E09880B2E
:10143000990B089581E090E0F8940C941F0AF894B9
:02144000FFCFDC
:101442000100000000004202AB01D9018F020A0232
:10145200E801FC010D0A006E616E00696E66006FA4
:10146200766600566F6C746167653A2000205600FC
:1014720043757272656E7420526571756573746519
:10148200643A200043757272656E743A20002041FE
:1014920000506F7765723A20002057002052504D5D
:0214A200000048
:00000001FF
